{
  "contractName": "Citizenship",
  "abi": [
    {
      "constant": true,
      "inputs": [
        {
          "name": "",
          "type": "uint256"
        }
      ],
      "name": "citizens",
      "outputs": [
        {
          "name": "id",
          "type": "uint256"
        },
        {
          "name": "username",
          "type": "address"
        },
        {
          "name": "firstName",
          "type": "string"
        },
        {
          "name": "lastName",
          "type": "string"
        },
        {
          "name": "fathersname",
          "type": "string"
        },
        {
          "name": "age",
          "type": "uint256"
        },
        {
          "name": "gender",
          "type": "string"
        },
        {
          "name": "votedorNot",
          "type": "bool"
        },
        {
          "name": "house_address",
          "type": "string"
        }
      ],
      "payable": false,
      "stateMutability": "view",
      "type": "function",
      "signature": "0x09a34f00"
    },
    {
      "constant": true,
      "inputs": [],
      "name": "citizenCount",
      "outputs": [
        {
          "name": "",
          "type": "uint256"
        }
      ],
      "payable": false,
      "stateMutability": "view",
      "type": "function",
      "signature": "0x5b4c777d"
    },
    {
      "constant": true,
      "inputs": [
        {
          "name": "",
          "type": "address"
        }
      ],
      "name": "admin",
      "outputs": [
        {
          "name": "",
          "type": "bool"
        }
      ],
      "payable": false,
      "stateMutability": "view",
      "type": "function",
      "signature": "0x63a846f8"
    },
    {
      "constant": true,
      "inputs": [
        {
          "name": "",
          "type": "address"
        }
      ],
      "name": "auth",
      "outputs": [
        {
          "name": "",
          "type": "bool"
        }
      ],
      "payable": false,
      "stateMutability": "view",
      "type": "function",
      "signature": "0xcd5d2118"
    },
    {
      "inputs": [],
      "payable": false,
      "stateMutability": "nonpayable",
      "type": "constructor",
      "signature": "constructor"
    },
    {
      "constant": false,
      "inputs": [
        {
          "name": "_addr",
          "type": "address"
        },
        {
          "name": "_fn",
          "type": "string"
        },
        {
          "name": "_ln",
          "type": "string"
        },
        {
          "name": "_father",
          "type": "string"
        },
        {
          "name": "_age",
          "type": "uint256"
        },
        {
          "name": "_gender",
          "type": "string"
        },
        {
          "name": "_ha",
          "type": "string"
        }
      ],
      "name": "addCitizen",
      "outputs": [],
      "payable": false,
      "stateMutability": "nonpayable",
      "type": "function",
      "signature": "0x399d3707"
    }
  ],
  "bytecode": "0x60806040523480156200001157600080fd5b5062000117336040805190810160405280600581526020017f41646d696e0000000000000000000000000000000000000000000000000000008152506040805190810160405280600581526020017f61646d696e000000000000000000000000000000000000000000000000000000815250602060405190810160405280600081525060146040805190810160405280600481526020017f4d616c65000000000000000000000000000000000000000000000000000000008152506040805190810160405280600a81526020017f50616c657420546f776e0000000000000000000000000000000000000000000081525062000175640100000000026401000000009004565b6001600360003373ffffffffffffffffffffffffffffffffffffffff1673ffffffffffffffffffffffffffffffffffffffff16815260200190815260200160002060006101000a81548160ff02191690831515021790555062000420565b60008081548092919060010191905055506101206040519081016040528060005481526020018873ffffffffffffffffffffffffffffffffffffffff1681526020018781526020018681526020018581526020018481526020018381526020016000151581526020018281525060016000805481526020019081526020016000206000820151816000015560208201518160010160006101000a81548173ffffffffffffffffffffffffffffffffffffffff021916908373ffffffffffffffffffffffffffffffffffffffff16021790555060408201518160020190805190602001906200026592919062000371565b5060608201518160030190805190602001906200028492919062000371565b506080820151816004019080519060200190620002a392919062000371565b5060a0820151816005015560c0820151816006019080519060200190620002cc92919062000371565b5060e08201518160070160006101000a81548160ff0219169083151502179055506101008201518160080190805190602001906200030c92919062000371565b509050506001600260008973ffffffffffffffffffffffffffffffffffffffff1673ffffffffffffffffffffffffffffffffffffffff16815260200190815260200160002060006101000a81548160ff02191690831515021790555050505050505050565b828054600181600116156101000203166002900490600052602060002090601f016020900481019282601f10620003b457805160ff1916838001178555620003e5565b82800160010185558215620003e5579182015b82811115620003e4578251825591602001919060010190620003c7565b5b509050620003f49190620003f8565b5090565b6200041d91905b8082111562000419576000816000905550600101620003ff565b5090565b90565b610daf80620004306000396000f3fe608060405234801561001057600080fd5b5060043610610074576000357c01000000000000000000000000000000000000000000000000000000009004806309a34f0014610079578063399d37071461031c5780635b4c777d1461065d57806363a846f81461067b578063cd5d2118146106d7575b600080fd5b6100a56004803603602081101561008f57600080fd5b8101908080359060200190929190505050610733565b604051808a81526020018973ffffffffffffffffffffffffffffffffffffffff1673ffffffffffffffffffffffffffffffffffffffff16815260200180602001806020018060200188815260200180602001871515151581526020018060200186810386528d818151815260200191508051906020019080838360005b8381101561013d578082015181840152602081019050610122565b50505050905090810190601f16801561016a5780820380516001836020036101000a031916815260200191505b5086810385528c818151815260200191508051906020019080838360005b838110156101a3578082015181840152602081019050610188565b50505050905090810190601f1680156101d05780820380516001836020036101000a031916815260200191505b5086810384528b818151815260200191508051906020019080838360005b838110156102095780820151818401526020810190506101ee565b50505050905090810190601f1680156102365780820380516001836020036101000a031916815260200191505b50868103835289818151815260200191508051906020019080838360005b8381101561026f578082015181840152602081019050610254565b50505050905090810190601f16801561029c5780820380516001836020036101000a031916815260200191505b50868103825287818151815260200191508051906020019080838360005b838110156102d55780820151818401526020810190506102ba565b50505050905090810190601f1680156103025780820380516001836020036101000a031916815260200191505b509e50505050505050505050505050505060405180910390f35b61065b600480360360e081101561033257600080fd5b81019080803573ffffffffffffffffffffffffffffffffffffffff1690602001909291908035906020019064010000000081111561036f57600080fd5b82018360208201111561038157600080fd5b803590602001918460018302840111640100000000831117156103a357600080fd5b91908080601f016020809104026020016040519081016040528093929190818152602001838380828437600081840152601f19601f8201169050808301925050505050505091929192908035906020019064010000000081111561040657600080fd5b82018360208201111561041857600080fd5b8035906020019184600183028401116401000000008311171561043a57600080fd5b91908080601f016020809104026020016040519081016040528093929190818152602001838380828437600081840152601f19601f8201169050808301925050505050505091929192908035906020019064010000000081111561049d57600080fd5b8201836020820111156104af57600080fd5b803590602001918460018302840111640100000000831117156104d157600080fd5b91908080601f016020809104026020016040519081016040528093929190818152602001838380828437600081840152601f19601f820116905080830192505050505050509192919290803590602001909291908035906020019064010000000081111561053e57600080fd5b82018360208201111561055057600080fd5b8035906020019184600183028401116401000000008311171561057257600080fd5b91908080601f016020809104026020016040519081016040528093929190818152602001838380828437600081840152601f19601f820116905080830192505050505050509192919290803590602001906401000000008111156105d557600080fd5b8201836020820111156105e757600080fd5b8035906020019184600183028401116401000000008311171561060957600080fd5b91908080601f016020809104026020016040519081016040528093929190818152602001838380828437600081840152601f19601f820116905080830192505050505050509192919290505050610aa6565b005b610665610c98565b6040518082815260200191505060405180910390f35b6106bd6004803603602081101561069157600080fd5b81019080803573ffffffffffffffffffffffffffffffffffffffff169060200190929190505050610c9e565b604051808215151515815260200191505060405180910390f35b610719600480360360208110156106ed57600080fd5b81019080803573ffffffffffffffffffffffffffffffffffffffff169060200190929190505050610cbe565b604051808215151515815260200191505060405180910390f35b60016020528060005260406000206000915090508060000154908060010160009054906101000a900473ffffffffffffffffffffffffffffffffffffffff1690806002018054600181600116156101000203166002900480601f01602080910402602001604051908101604052809291908181526020018280546001816001161561010002031660029004801561080b5780601f106107e05761010080835404028352916020019161080b565b820191906000526020600020905b8154815290600101906020018083116107ee57829003601f168201915b505050505090806003018054600181600116156101000203166002900480601f0160208091040260200160405190810160405280929190818152602001828054600181600116156101000203166002900480156108a95780601f1061087e576101008083540402835291602001916108a9565b820191906000526020600020905b81548152906001019060200180831161088c57829003601f168201915b505050505090806004018054600181600116156101000203166002900480601f0160208091040260200160405190810160405280929190818152602001828054600181600116156101000203166002900480156109475780601f1061091c57610100808354040283529160200191610947565b820191906000526020600020905b81548152906001019060200180831161092a57829003601f168201915b505050505090806005015490806006018054600181600116156101000203166002900480601f0160208091040260200160405190810160405280929190818152602001828054600181600116156101000203166002900480156109eb5780601f106109c0576101008083540402835291602001916109eb565b820191906000526020600020905b8154815290600101906020018083116109ce57829003601f168201915b5050505050908060070160009054906101000a900460ff1690806008018054600181600116156101000203166002900480601f016020809104026020016040519081016040528092919081815260200182805460018160011615610100020316600290048015610a9c5780601f10610a7157610100808354040283529160200191610a9c565b820191906000526020600020905b815481529060010190602001808311610a7f57829003601f168201915b5050505050905089565b60008081548092919060010191905055506101206040519081016040528060005481526020018873ffffffffffffffffffffffffffffffffffffffff1681526020018781526020018681526020018581526020018481526020018381526020016000151581526020018281525060016000805481526020019081526020016000206000820151816000015560208201518160010160006101000a81548173ffffffffffffffffffffffffffffffffffffffff021916908373ffffffffffffffffffffffffffffffffffffffff1602179055506040820151816002019080519060200190610b94929190610cde565b506060820151816003019080519060200190610bb1929190610cde565b506080820151816004019080519060200190610bce929190610cde565b5060a0820151816005015560c0820151816006019080519060200190610bf5929190610cde565b5060e08201518160070160006101000a81548160ff021916908315150217905550610100820151816008019080519060200190610c33929190610cde565b509050506001600260008973ffffffffffffffffffffffffffffffffffffffff1673ffffffffffffffffffffffffffffffffffffffff16815260200190815260200160002060006101000a81548160ff02191690831515021790555050505050505050565b60005481565b60036020528060005260406000206000915054906101000a900460ff1681565b60026020528060005260406000206000915054906101000a900460ff1681565b828054600181600116156101000203166002900490600052602060002090601f016020900481019282601f10610d1f57805160ff1916838001178555610d4d565b82800160010185558215610d4d579182015b82811115610d4c578251825591602001919060010190610d31565b5b509050610d5a9190610d5e565b5090565b610d8091905b80821115610d7c576000816000905550600101610d64565b5090565b9056fea165627a7a72305820cabbe6f8be7c90885de26c15162ba55bba7af04610b7ee829b731e255e9753cf0029",
  "source": "pragma solidity ^0.5.0;\ncontract Citizenship {\n    uint public citizenCount;\n    struct Citizen{\n        uint id;\n        address username;\n        string firstName;\n        string lastName;\n        string fathersname;\n        uint age;\n        string gender;\n        bool votedorNot;\n        string house_address;\n    }\n    mapping(uint => Citizen) public citizens;\n    mapping(address=>bool) public auth;\n    mapping (address=>bool) public admin;\n    constructor() public {\n        addCitizen(msg.sender,\"Admin\",\"admin\",\"\",20,\"Male\",\"Palet Town\");\n        admin[msg.sender]= true;\n    }\n\n    function addCitizen (address _addr,string memory _fn,string memory _ln,string memory _father,uint _age,string memory _gender,string memory _ha) \n    public {\n        citizenCount ++;\n        citizens[citizenCount] = Citizen(citizenCount,_addr, _fn,_ln,_father,_age,_gender,false,_ha);    \n        auth[_addr] = true; \n    }\n    \n}\n",
  "sourcePath": "/Users/ajayrwarrier/Desktop/Cryptopolis/contracts/Citizenship.sol",
  "compiler": {
    "name": "solc",
    "version": "0.5.2+commit.1df8f40c.Emscripten.clang"
  },
  "schemaVersion": "3.0.2",
  "updatedAt": "2019-05-08T08:01:37.202Z",
  "devdoc": {
    "methods": {}
  },
  "userdoc": {
    "methods": {}
  }
}