{
  "contractName": "Citizenship",
  "abi": [
    {
      "constant": true,
      "inputs": [
        {
          "name": "",
          "type": "uint256"
        }
      ],
      "name": "citizens",
      "outputs": [
        {
          "name": "id",
          "type": "uint256"
        },
        {
          "name": "username",
          "type": "address"
        },
        {
          "name": "firstName",
          "type": "string"
        },
        {
          "name": "lastName",
          "type": "string"
        },
        {
          "name": "fathersname",
          "type": "string"
        },
        {
          "name": "age",
          "type": "uint256"
        },
        {
          "name": "gender",
          "type": "string"
        },
        {
          "name": "votedorNot",
          "type": "bool"
        },
        {
          "name": "house_address",
          "type": "string"
        }
      ],
      "payable": false,
      "stateMutability": "view",
      "type": "function",
      "signature": "0x09a34f00"
    },
    {
      "constant": true,
      "inputs": [],
      "name": "citizenCount",
      "outputs": [
        {
          "name": "",
          "type": "uint256"
        }
      ],
      "payable": false,
      "stateMutability": "view",
      "type": "function",
      "signature": "0x5b4c777d"
    },
    {
      "constant": true,
      "inputs": [
        {
          "name": "",
          "type": "address"
        }
      ],
      "name": "auth",
      "outputs": [
        {
          "name": "",
          "type": "bool"
        }
      ],
      "payable": false,
      "stateMutability": "view",
      "type": "function",
      "signature": "0xcd5d2118"
    },
    {
      "inputs": [],
      "payable": false,
      "stateMutability": "nonpayable",
      "type": "constructor",
      "signature": "constructor"
    },
    {
      "constant": false,
      "inputs": [
        {
          "name": "_addr",
          "type": "address"
        },
        {
          "name": "_fn",
          "type": "string"
        },
        {
          "name": "_ln",
          "type": "string"
        },
        {
          "name": "_father",
          "type": "string"
        },
        {
          "name": "_age",
          "type": "uint256"
        },
        {
          "name": "_gender",
          "type": "string"
        },
        {
          "name": "_ha",
          "type": "string"
        }
      ],
      "name": "addCitizen",
      "outputs": [],
      "payable": false,
      "stateMutability": "nonpayable",
      "type": "function",
      "signature": "0x399d3707"
    }
  ],
  "bytecode": "0x60806040523480156200001157600080fd5b50604080518082018252600781527f50696b61636875000000000000000000000000000000000000000000000000006020808301919091528251808401845260048082527f50696b61000000000000000000000000000000000000000000000000000000008284015284518086018652600181527f520000000000000000000000000000000000000000000000000000000000000081850152855180870187529182527f4d616c6500000000000000000000000000000000000000000000000000000000828501528551808701909652600a86527f50616c657420546f776e00000000000000000000000000000000000000000000938601939093526200013c9473345ca3e014aaf5dca488057592ee47305d9b3e1094939160149164010000000062000142810204565b62000352565b6000805460019081018083556040805161012081018252828152600160a060020a038c811660208084019182528385018e8152606085018e9052608085018d905260a085018c905260c085018b905260e0850189905261010085018a9052958852868152939096208251815595519486018054600160a060020a031916959091169490941790935590518051929392620001e39260028501920190620002ad565b506060820151805162000201916003840191602090910190620002ad565b50608082015180516200021f916004840191602090910190620002ad565b5060a0820151600582015560c0820151805162000247916006840191602090910190620002ad565b5060e082015160078201805460ff191691151591909117905561010082015180516200027e916008840191602090910190620002ad565b505050600160a060020a039096166000908152600260205260409020805460ff19166001179055505050505050565b828054600181600116156101000203166002900490600052602060002090601f016020900481019282601f10620002f057805160ff191683800117855562000320565b8280016001018555821562000320579182015b828111156200032057825182559160200191906001019062000303565b506200032e92915062000332565b5090565b6200034f91905b808211156200032e576000815560010162000339565b90565b610b7e80620003626000396000f3fe6080604052600436106100615763ffffffff7c010000000000000000000000000000000000000000000000000000000060003504166309a34f008114610066578063399d3707146102d25780635b4c777d146105bb578063cd5d2118146105e2575b600080fd5b34801561007257600080fd5b506100906004803603602081101561008957600080fd5b5035610629565b604051808a815260200189600160a060020a0316600160a060020a0316815260200180602001806020018060200188815260200180602001871515151581526020018060200186810386528d818151815260200191508051906020019080838360005b8381101561010b5781810151838201526020016100f3565b50505050905090810190601f1680156101385780820380516001836020036101000a031916815260200191505b5086810385528c5181528c516020918201918e019080838360005b8381101561016b578181015183820152602001610153565b50505050905090810190601f1680156101985780820380516001836020036101000a031916815260200191505b5086810384528b5181528b516020918201918d019080838360005b838110156101cb5781810151838201526020016101b3565b50505050905090810190601f1680156101f85780820380516001836020036101000a031916815260200191505b5086810383528951815289516020918201918b019080838360005b8381101561022b578181015183820152602001610213565b50505050905090810190601f1680156102585780820380516001836020036101000a031916815260200191505b50868103825287518152875160209182019189019080838360005b8381101561028b578181015183820152602001610273565b50505050905090810190601f1680156102b85780820380516001836020036101000a031916815260200191505b509e50505050505050505050505050505060405180910390f35b3480156102de57600080fd5b506105b9600480360360e08110156102f557600080fd5b600160a060020a03823516919081019060408101602082013564010000000081111561032057600080fd5b82018360208201111561033257600080fd5b8035906020019184600183028401116401000000008311171561035457600080fd5b91908080601f01602080910402602001604051908101604052809392919081815260200183838082843760009201919091525092959493602081019350359150506401000000008111156103a757600080fd5b8201836020820111156103b957600080fd5b803590602001918460018302840111640100000000831117156103db57600080fd5b91908080601f016020809104026020016040519081016040528093929190818152602001838380828437600092019190915250929594936020810193503591505064010000000081111561042e57600080fd5b82018360208201111561044057600080fd5b8035906020019184600183028401116401000000008311171561046257600080fd5b91908080601f016020809104026020016040519081016040528093929190818152602001838380828437600092019190915250929584359590949093506040810192506020013590506401000000008111156104bd57600080fd5b8201836020820111156104cf57600080fd5b803590602001918460018302840111640100000000831117156104f157600080fd5b91908080601f016020809104026020016040519081016040528093929190818152602001838380828437600092019190915250929594936020810193503591505064010000000081111561054457600080fd5b82018360208201111561055657600080fd5b8035906020019184600183028401116401000000008311171561057857600080fd5b91908080601f01602080910402602001604051908101604052809392919081815260200183838082843760009201919091525092955061092e945050505050565b005b3480156105c757600080fd5b506105d0610a9c565b60408051918252519081900360200190f35b3480156105ee57600080fd5b506106156004803603602081101561060557600080fd5b5035600160a060020a0316610aa2565b604080519115158252519081900360200190f35b6001602081815260009283526040928390208054818401546002808401805488516101009882161598909802600019011691909104601f81018690048602870186019097528686529195600160a060020a039091169492938301828280156106d25780601f106106a7576101008083540402835291602001916106d2565b820191906000526020600020905b8154815290600101906020018083116106b557829003601f168201915b5050505060038301805460408051602060026001851615610100026000190190941693909304601f81018490048402820184019092528181529495949350908301828280156107625780601f1061073757610100808354040283529160200191610762565b820191906000526020600020905b81548152906001019060200180831161074557829003601f168201915b5050505060048301805460408051602060026001851615610100026000190190941693909304601f81018490048402820184019092528181529495949350908301828280156107f25780601f106107c7576101008083540402835291602001916107f2565b820191906000526020600020905b8154815290600101906020018083116107d557829003601f168201915b50505050600583015460068401805460408051602060026001851615610100026000190190941693909304601f810184900484028201840190925281815295969395939450908301828280156108895780601f1061085e57610100808354040283529160200191610889565b820191906000526020600020905b81548152906001019060200180831161086c57829003601f168201915b50505050600783015460088401805460408051602060026101006001861615026000190190941693909304601f8101849004840282018401909252818152959660ff90941695939450908301828280156109245780601f106108f957610100808354040283529160200191610924565b820191906000526020600020905b81548152906001019060200180831161090757829003601f168201915b5050505050905089565b6000805460019081018083556040805161012081018252828152600160a060020a038c811660208084019182528385018e8152606085018e9052608085018d905260a085018c905260c085018b905260e0850189905261010085018a905295885286815293909620825181559551948601805473ffffffffffffffffffffffffffffffffffffffff19169590911694909417909355905180519293926109da9260028501920190610ab7565b50606082015180516109f6916003840191602090910190610ab7565b5060808201518051610a12916004840191602090910190610ab7565b5060a0820151600582015560c08201518051610a38916006840191602090910190610ab7565b5060e082015160078201805460ff19169115159190911790556101008201518051610a6d916008840191602090910190610ab7565b505050600160a060020a039096166000908152600260205260409020805460ff19166001179055505050505050565b60005481565b60026020526000908152604090205460ff1681565b828054600181600116156101000203166002900490600052602060002090601f016020900481019282601f10610af857805160ff1916838001178555610b25565b82800160010185558215610b25579182015b82811115610b25578251825591602001919060010190610b0a565b50610b31929150610b35565b5090565b610b4f91905b80821115610b315760008155600101610b3b565b9056fea165627a7a72305820fcebd2ea993e54cb9b944e6fdb317eb88b942a97a09f2051a1e2bd94cd0dd5ba0029",
  "source": "pragma solidity ^0.5.0;\ncontract Citizenship {\n    uint public citizenCount;\n    struct Citizen{\n        uint id;\n        address username;\n        string firstName;\n        string lastName;\n        string fathersname;\n        uint age;\n        string gender;\n        bool votedorNot;\n        string house_address;\n    }\n    mapping(uint => Citizen) public citizens;\n    mapping(address=>bool) public auth;\n    \n    constructor() public {\n        addCitizen(0x345cA3e014Aaf5dcA488057592ee47305D9B3e10,\"Pikachu\",\"Pika\",\"R\",20,\"Male\",\"Palet Town\");\n    }\n\n    function addCitizen (address _addr,string memory _fn,string memory _ln,string memory _father,uint _age,string memory _gender,string memory _ha) \n    public {\n        citizenCount ++;\n        citizens[citizenCount] = Citizen(citizenCount,_addr, _fn,_ln,_father,_age,_gender,false,_ha);    \n        auth[_addr] = true; \n    }\n    \n}\n",
  "sourcePath": "/Users/ajayrwarrier/Desktop/Cryptopolis/contracts/Citizenship.sol",
  "compiler": {
    "name": "solc",
    "version": "0.5.0+commit.1d4f565a.Emscripten.clang"
  },
  "schemaVersion": "3.0.2",
  "updatedAt": "2019-05-04T14:14:39.678Z",
  "devdoc": {
    "methods": {}
  },
  "userdoc": {
    "methods": {}
  }
}