{
  "contractName": "Election",
  "abi": [
    {
      "constant": true,
      "inputs": [
        {
          "name": "",
          "type": "uint256"
        }
      ],
      "name": "citizens",
      "outputs": [
        {
          "name": "id",
          "type": "uint256"
        },
        {
          "name": "username",
          "type": "address"
        },
        {
          "name": "firstName",
          "type": "string"
        },
        {
          "name": "lastName",
          "type": "string"
        },
        {
          "name": "fathersname",
          "type": "string"
        },
        {
          "name": "age",
          "type": "uint256"
        },
        {
          "name": "gender",
          "type": "string"
        },
        {
          "name": "votedorNot",
          "type": "bool"
        },
        {
          "name": "house_address",
          "type": "string"
        }
      ],
      "payable": false,
      "stateMutability": "view",
      "type": "function",
      "signature": "0x09a34f00"
    },
    {
      "constant": true,
      "inputs": [],
      "name": "candidatesCount",
      "outputs": [
        {
          "name": "",
          "type": "uint256"
        }
      ],
      "payable": false,
      "stateMutability": "view",
      "type": "function",
      "signature": "0x2d35a8a2"
    },
    {
      "constant": true,
      "inputs": [
        {
          "name": "",
          "type": "uint256"
        }
      ],
      "name": "candidates",
      "outputs": [
        {
          "name": "id",
          "type": "uint256"
        },
        {
          "name": "name",
          "type": "string"
        },
        {
          "name": "voteCount",
          "type": "uint256"
        }
      ],
      "payable": false,
      "stateMutability": "view",
      "type": "function",
      "signature": "0x3477ee2e"
    },
    {
      "constant": false,
      "inputs": [
        {
          "name": "_addr",
          "type": "address"
        },
        {
          "name": "_fn",
          "type": "string"
        },
        {
          "name": "_ln",
          "type": "string"
        },
        {
          "name": "_father",
          "type": "string"
        },
        {
          "name": "_age",
          "type": "uint256"
        },
        {
          "name": "_gender",
          "type": "string"
        },
        {
          "name": "_ha",
          "type": "string"
        }
      ],
      "name": "addCitizen",
      "outputs": [],
      "payable": false,
      "stateMutability": "nonpayable",
      "type": "function",
      "signature": "0x399d3707"
    },
    {
      "constant": true,
      "inputs": [],
      "name": "citizenCount",
      "outputs": [
        {
          "name": "",
          "type": "uint256"
        }
      ],
      "payable": false,
      "stateMutability": "view",
      "type": "function",
      "signature": "0x5b4c777d"
    },
    {
      "constant": true,
      "inputs": [
        {
          "name": "",
          "type": "address"
        }
      ],
      "name": "voters",
      "outputs": [
        {
          "name": "",
          "type": "bool"
        }
      ],
      "payable": false,
      "stateMutability": "view",
      "type": "function",
      "signature": "0xa3ec138d"
    },
    {
      "constant": true,
      "inputs": [
        {
          "name": "",
          "type": "address"
        }
      ],
      "name": "auth",
      "outputs": [
        {
          "name": "",
          "type": "bool"
        }
      ],
      "payable": false,
      "stateMutability": "view",
      "type": "function",
      "signature": "0xcd5d2118"
    },
    {
      "inputs": [],
      "payable": false,
      "stateMutability": "nonpayable",
      "type": "constructor",
      "signature": "constructor"
    },
    {
      "anonymous": false,
      "inputs": [
        {
          "indexed": true,
          "name": "_candidateId",
          "type": "uint256"
        }
      ],
      "name": "votedEvent",
      "type": "event",
      "signature": "0xfff3c900d938d21d0990d786e819f29b8d05c1ef587b462b939609625b684b16"
    },
    {
      "constant": false,
      "inputs": [
        {
          "name": "_candidateId",
          "type": "uint256"
        }
      ],
      "name": "vote",
      "outputs": [],
      "payable": false,
      "stateMutability": "nonpayable",
      "type": "function",
      "signature": "0x0121b93f"
    }
  ],
  "bytecode": "0x60806040523480156200001157600080fd5b50604080518082018252600781527f50696b61636875000000000000000000000000000000000000000000000000006020808301919091528251808401845260048082527f50696b61000000000000000000000000000000000000000000000000000000008284015284518086018652600181527f520000000000000000000000000000000000000000000000000000000000000081850152855180870187529182527f4d616c6500000000000000000000000000000000000000000000000000000000828501528551808701909652600a86527f50616c657420546f776e00000000000000000000000000000000000000000000938601939093526200013c9473345ca3e014aaf5dca488057592ee47305d9b3e10949391601491640100000000620001d2810204565b60408051808201909152600b81527f43616e6469646174652031000000000000000000000000000000000000000000602082015262000184906401000000006200033d810204565b60408051808201909152600b81527f43616e64696461746520320000000000000000000000000000000000000000006020820152620001cc906401000000006200033d810204565b62000446565b6000805460019081018083556040805161012081018252828152600160a060020a038c811660208084019182528385018e8152606085018e9052608085018d905260a085018c905260c085018b905260e0850189905261010085018a9052958852868152939096208251815595519486018054600160a060020a031916959091169490941790935590518051929392620002739260028501920190620003a1565b506060820151805162000291916003840191602090910190620003a1565b5060808201518051620002af916004840191602090910190620003a1565b5060a0820151600582015560c08201518051620002d7916006840191602090910190620003a1565b5060e082015160078201805460ff191691151591909117905561010082015180516200030e916008840191602090910190620003a1565b505050600160a060020a039096166000908152600260205260409020805460ff19166001179055505050505050565b6005805460019081019182905560408051606081018252838152602080820186815260008385018190529586526004825292909420815181559151805191949293620003909390850192910190620003a1565b506040820151816002015590505050565b828054600181600116156101000203166002900490600052602060002090601f016020900481019282601f10620003e457805160ff191683800117855562000414565b8280016001018555821562000414579182015b8281111562000414578251825591602001919060010190620003f7565b506200042292915062000426565b5090565b6200044391905b808211156200042257600081556001016200042d565b90565b610e2d80620004566000396000f3fe60806040526004361061008d5763ffffffff7c01000000000000000000000000000000000000000000000000000000006000350416630121b93f811461009257806309a34f00146100be5780632d35a8a21461032a5780633477ee2e14610351578063399d3707146104015780635b4c777d146106e8578063a3ec138d146106fd578063cd5d211814610744575b600080fd5b34801561009e57600080fd5b506100bc600480360360208110156100b557600080fd5b5035610777565b005b3480156100ca57600080fd5b506100e8600480360360208110156100e157600080fd5b5035610810565b604051808a815260200189600160a060020a0316600160a060020a0316815260200180602001806020018060200188815260200180602001871515151581526020018060200186810386528d818151815260200191508051906020019080838360005b8381101561016357818101518382015260200161014b565b50505050905090810190601f1680156101905780820380516001836020036101000a031916815260200191505b5086810385528c5181528c516020918201918e019080838360005b838110156101c35781810151838201526020016101ab565b50505050905090810190601f1680156101f05780820380516001836020036101000a031916815260200191505b5086810384528b5181528b516020918201918d019080838360005b8381101561022357818101518382015260200161020b565b50505050905090810190601f1680156102505780820380516001836020036101000a031916815260200191505b5086810383528951815289516020918201918b019080838360005b8381101561028357818101518382015260200161026b565b50505050905090810190601f1680156102b05780820380516001836020036101000a031916815260200191505b50868103825287518152875160209182019189019080838360005b838110156102e35781810151838201526020016102cb565b50505050905090810190601f1680156103105780820380516001836020036101000a031916815260200191505b509e50505050505050505050505050505060405180910390f35b34801561033657600080fd5b5061033f610b15565b60408051918252519081900360200190f35b34801561035d57600080fd5b5061037b6004803603602081101561037457600080fd5b5035610b1b565b6040518084815260200180602001838152602001828103825284818151815260200191508051906020019080838360005b838110156103c45781810151838201526020016103ac565b50505050905090810190601f1680156103f15780820380516001836020036101000a031916815260200191505b5094505050505060405180910390f35b34801561040d57600080fd5b506100bc600480360360e081101561042457600080fd5b600160a060020a03823516919081019060408101602082013564010000000081111561044f57600080fd5b82018360208201111561046157600080fd5b8035906020019184600183028401116401000000008311171561048357600080fd5b91908080601f01602080910402602001604051908101604052809392919081815260200183838082843760009201919091525092959493602081019350359150506401000000008111156104d657600080fd5b8201836020820111156104e857600080fd5b8035906020019184600183028401116401000000008311171561050a57600080fd5b91908080601f016020809104026020016040519081016040528093929190818152602001838380828437600092019190915250929594936020810193503591505064010000000081111561055d57600080fd5b82018360208201111561056f57600080fd5b8035906020019184600183028401116401000000008311171561059157600080fd5b91908080601f016020809104026020016040519081016040528093929190818152602001838380828437600092019190915250929584359590949093506040810192506020013590506401000000008111156105ec57600080fd5b8201836020820111156105fe57600080fd5b8035906020019184600183028401116401000000008311171561062057600080fd5b91908080601f016020809104026020016040519081016040528093929190818152602001838380828437600092019190915250929594936020810193503591505064010000000081111561067357600080fd5b82018360208201111561068557600080fd5b803590602001918460018302840111640100000000831117156106a757600080fd5b91908080601f016020809104026020016040519081016040528093929190818152602001838380828437600092019190915250929550610bc8945050505050565b3480156106f457600080fd5b5061033f610d36565b34801561070957600080fd5b506107306004803603602081101561072057600080fd5b5035600160a060020a0316610d3c565b604080519115158252519081900360200190f35b34801561075057600080fd5b506107306004803603602081101561076757600080fd5b5035600160a060020a0316610d51565b3360009081526003602052604090205460ff161561079457600080fd5b6000811180156107a657506005548111155b15156107b157600080fd5b336000908152600360209081526040808320805460ff19166001908117909155848452600490925280832060020180549092019091555182917ffff3c900d938d21d0990d786e819f29b8d05c1ef587b462b939609625b684b1691a250565b6001602081815260009283526040928390208054818401546002808401805488516101009882161598909802600019011691909104601f81018690048602870186019097528686529195600160a060020a039091169492938301828280156108b95780601f1061088e576101008083540402835291602001916108b9565b820191906000526020600020905b81548152906001019060200180831161089c57829003601f168201915b5050505060038301805460408051602060026001851615610100026000190190941693909304601f81018490048402820184019092528181529495949350908301828280156109495780601f1061091e57610100808354040283529160200191610949565b820191906000526020600020905b81548152906001019060200180831161092c57829003601f168201915b5050505060048301805460408051602060026001851615610100026000190190941693909304601f81018490048402820184019092528181529495949350908301828280156109d95780601f106109ae576101008083540402835291602001916109d9565b820191906000526020600020905b8154815290600101906020018083116109bc57829003601f168201915b50505050600583015460068401805460408051602060026001851615610100026000190190941693909304601f81018490048402820184019092528181529596939593945090830182828015610a705780601f10610a4557610100808354040283529160200191610a70565b820191906000526020600020905b815481529060010190602001808311610a5357829003601f168201915b50505050600783015460088401805460408051602060026101006001861615026000190190941693909304601f8101849004840282018401909252818152959660ff9094169593945090830182828015610b0b5780601f10610ae057610100808354040283529160200191610b0b565b820191906000526020600020905b815481529060010190602001808311610aee57829003601f168201915b5050505050905089565b60055481565b6004602090815260009182526040918290208054600180830180548651600293821615610100026000190190911692909204601f810186900486028301860190965285825291949293909290830182828015610bb85780601f10610b8d57610100808354040283529160200191610bb8565b820191906000526020600020905b815481529060010190602001808311610b9b57829003601f168201915b5050505050908060020154905083565b6000805460019081018083556040805161012081018252828152600160a060020a038c811660208084019182528385018e8152606085018e9052608085018d905260a085018c905260c085018b905260e0850189905261010085018a905295885286815293909620825181559551948601805473ffffffffffffffffffffffffffffffffffffffff1916959091169490941790935590518051929392610c749260028501920190610d66565b5060608201518051610c90916003840191602090910190610d66565b5060808201518051610cac916004840191602090910190610d66565b5060a0820151600582015560c08201518051610cd2916006840191602090910190610d66565b5060e082015160078201805460ff19169115159190911790556101008201518051610d07916008840191602090910190610d66565b505050600160a060020a039096166000908152600260205260409020805460ff19166001179055505050505050565b60005481565b60036020526000908152604090205460ff1681565b60026020526000908152604090205460ff1681565b828054600181600116156101000203166002900490600052602060002090601f016020900481019282601f10610da757805160ff1916838001178555610dd4565b82800160010185558215610dd4579182015b82811115610dd4578251825591602001919060010190610db9565b50610de0929150610de4565b5090565b610dfe91905b80821115610de05760008155600101610dea565b9056fea165627a7a723058200c26401c2050675bcc8ca88629431281cb0a3b21a4400d07115600f6e0d4f5c10029",
  "source": "pragma solidity ^0.5.0;\nimport \"./Citizenship.sol\";\ncontract Election is Citizenship {\n    // Model a Candidate\n    struct Candidate {\n        uint id;\n        string name;\n        uint voteCount;\n    }\n\n    // Store accounts that have voted\n    mapping(address => bool) public voters;\n    // Read/write candidates\n    mapping(uint => Candidate) public candidates;\n    // Store Candidates Count\n    uint public candidatesCount;\n    event votedEvent (uint indexed _candidateId);\n    constructor() public {\n        addCandidate(\"Candidate 1\");\n        addCandidate(\"Candidate 2\");\n    }\n\n    function addCandidate (string memory _name) private {\n        candidatesCount ++;\n        candidates[candidatesCount] = Candidate(candidatesCount, _name, 0);\n    }\n\n    function vote (uint _candidateId) public {\n        // require that they haven't voted before\n\n        require(!voters[msg.sender]);\n\n        // require a valid candidate\n        require(_candidateId > 0 && _candidateId <= candidatesCount);\n\n        // record that voter has voted\n        voters[msg.sender] = true;\n\n        // update candidate vote Count\n        candidates[_candidateId].voteCount ++;\n        emit votedEvent(_candidateId);\n    }\n}",
  "sourcePath": "/Users/ajayrwarrier/Desktop/Cryptopolis/contracts/Election.sol",
  "compiler": {
    "name": "solc",
    "version": "0.5.0+commit.1d4f565a.Emscripten.clang"
  },
  "schemaVersion": "3.0.2",
  "updatedAt": "2019-05-04T15:57:35.439Z",
  "devdoc": {
    "methods": {}
  },
  "userdoc": {
    "methods": {}
  }
}