{
  "contractName": "LandRecords",
  "abi": [
    {
      "constant": true,
      "inputs": [
        {
          "name": "",
          "type": "uint256"
        }
      ],
      "name": "records",
      "outputs": [
        {
          "name": "Rid",
          "type": "uint256"
        },
        {
          "name": "Cid",
          "type": "address"
        },
        {
          "name": "Owner",
          "type": "string"
        },
        {
          "name": "Address",
          "type": "string"
        },
        {
          "name": "Sqfeet",
          "type": "uint256"
        },
        {
          "name": "Lid",
          "type": "uint256"
        }
      ],
      "payable": false,
      "stateMutability": "view",
      "type": "function",
      "signature": "0x34461067"
    },
    {
      "constant": true,
      "inputs": [],
      "name": "recordCount",
      "outputs": [
        {
          "name": "",
          "type": "uint256"
        }
      ],
      "payable": false,
      "stateMutability": "view",
      "type": "function",
      "signature": "0x900407bc"
    },
    {
      "inputs": [],
      "payable": false,
      "stateMutability": "nonpayable",
      "type": "constructor",
      "signature": "constructor"
    },
    {
      "constant": false,
      "inputs": [
        {
          "name": "cid",
          "type": "address"
        },
        {
          "name": "_owner",
          "type": "string"
        },
        {
          "name": "_address",
          "type": "string"
        },
        {
          "name": "_sqfeet",
          "type": "uint256"
        }
      ],
      "name": "createRecord",
      "outputs": [],
      "payable": false,
      "stateMutability": "nonpayable",
      "type": "function",
      "signature": "0xba28be1b"
    }
  ],
  "bytecode": "0x60806040526000805534801561001457600080fd5b5061009b336040805190810160405280600881526020017f4a616e6520446f650000000000000000000000000000000000000000000000008152506040805190810160405280601381526020017f414243206c616e652c58595a20504f2c5051520000000000000000000000000081525060646100a0640100000000026401000000009004565b61025d565b600080815480929190600101919050555060c06040519081016040528060005481526020018573ffffffffffffffffffffffffffffffffffffffff16815260200184815260200183815260200182815260200160646000540281525060016000805481526020019081526020016000206000820151816000015560208201518160010160006101000a81548173ffffffffffffffffffffffffffffffffffffffff021916908373ffffffffffffffffffffffffffffffffffffffff160217905550604082015181600201908051906020019061017d9291906101b8565b50606082015181600301908051906020019061019a9291906101b8565b506080820151816004015560a0820151816005015590505050505050565b828054600181600116156101000203166002900490600052602060002090601f016020900481019282601f106101f957805160ff1916838001178555610227565b82800160010185558215610227579182015b8281111561022657825182559160200191906001019061020b565b5b5090506102349190610238565b5090565b61025a91905b8082111561025657600081600090555060010161023e565b5090565b90565b6106d38061026c6000396000f3fe608060405234801561001057600080fd5b506004361061005e576000357c0100000000000000000000000000000000000000000000000000000000900480633446106714610063578063900407bc146101be578063ba28be1b146101dc575b600080fd5b61008f6004803603602081101561007957600080fd5b8101908080359060200190929190505050610358565b604051808781526020018673ffffffffffffffffffffffffffffffffffffffff1673ffffffffffffffffffffffffffffffffffffffff1681526020018060200180602001858152602001848152602001838103835287818151815260200191508051906020019080838360005b838110156101175780820151818401526020810190506100fc565b50505050905090810190601f1680156101445780820380516001836020036101000a031916815260200191505b50838103825286818151815260200191508051906020019080838360005b8381101561017d578082015181840152602081019050610162565b50505050905090810190601f1680156101aa5780820380516001836020036101000a031916815260200191505b509850505050505050505060405180910390f35b6101c66104e4565b6040518082815260200191505060405180910390f35b610356600480360360808110156101f257600080fd5b81019080803573ffffffffffffffffffffffffffffffffffffffff1690602001909291908035906020019064010000000081111561022f57600080fd5b82018360208201111561024157600080fd5b8035906020019184600183028401116401000000008311171561026357600080fd5b91908080601f016020809104026020016040519081016040528093929190818152602001838380828437600081840152601f19601f820116905080830192505050505050509192919290803590602001906401000000008111156102c657600080fd5b8201836020820111156102d857600080fd5b803590602001918460018302840111640100000000831117156102fa57600080fd5b91908080601f016020809104026020016040519081016040528093929190818152602001838380828437600081840152601f19601f820116905080830192505050505050509192919290803590602001909291905050506104ea565b005b60016020528060005260406000206000915090508060000154908060010160009054906101000a900473ffffffffffffffffffffffffffffffffffffffff1690806002018054600181600116156101000203166002900480601f0160208091040260200160405190810160405280929190818152602001828054600181600116156101000203166002900480156104305780601f1061040557610100808354040283529160200191610430565b820191906000526020600020905b81548152906001019060200180831161041357829003601f168201915b505050505090806003018054600181600116156101000203166002900480601f0160208091040260200160405190810160405280929190818152602001828054600181600116156101000203166002900480156104ce5780601f106104a3576101008083540402835291602001916104ce565b820191906000526020600020905b8154815290600101906020018083116104b157829003601f168201915b5050505050908060040154908060050154905086565b60005481565b600080815480929190600101919050555060c06040519081016040528060005481526020018573ffffffffffffffffffffffffffffffffffffffff16815260200184815260200183815260200182815260200160646000540281525060016000805481526020019081526020016000206000820151816000015560208201518160010160006101000a81548173ffffffffffffffffffffffffffffffffffffffff021916908373ffffffffffffffffffffffffffffffffffffffff16021790555060408201518160020190805190602001906105c7929190610602565b5060608201518160030190805190602001906105e4929190610602565b506080820151816004015560a0820151816005015590505050505050565b828054600181600116156101000203166002900490600052602060002090601f016020900481019282601f1061064357805160ff1916838001178555610671565b82800160010185558215610671579182015b82811115610670578251825591602001919060010190610655565b5b50905061067e9190610682565b5090565b6106a491905b808211156106a0576000816000905550600101610688565b5090565b9056fea165627a7a72305820b9b209de4407b149b555b5007d98942b9cac93a9d969b7efb53d5cbf179ed1710029",
  "source": "pragma solidity ^0.5.0;\n\ncontract LandRecords{\n    uint public recordCount = 0;\n\n    struct Record {\n    uint Rid;\n    address Cid;\n    string Owner;\n    string Address;\n    uint Sqfeet;\n    uint Lid;\n  }\n   \n  mapping(uint => Record) public records;\n\n  constructor() public {\n        createRecord(msg.sender,\"Jane Doe\",\"ABC lane,XYZ PO,PQR\",100);\n      }\n\n  function createRecord(address cid,string memory _owner,string memory _address,uint _sqfeet) public {\n    recordCount ++;\n    records[recordCount] = Record(recordCount,cid,_owner,_address,_sqfeet,recordCount*100);\n    \n  }\n}",
  "sourcePath": "/Users/ajayrwarrier/Desktop/Cryptopolis/contracts/LandRecords.sol",
  "compiler": {
    "name": "solc",
    "version": "0.5.2+commit.1df8f40c.Emscripten.clang"
  },
  "schemaVersion": "3.0.2",
  "updatedAt": "2019-05-10T09:08:06.982Z",
  "devdoc": {
    "methods": {}
  },
  "userdoc": {
    "methods": {}
  }
}