{
  "contractName": "LandRecords",
  "abi": [
    {
      "constant": true,
      "inputs": [
        {
          "name": "",
          "type": "uint256"
        }
      ],
      "name": "records",
      "outputs": [
        {
          "name": "Rid",
          "type": "uint256"
        },
        {
          "name": "Cid",
          "type": "uint256"
        },
        {
          "name": "Owner",
          "type": "string"
        },
        {
          "name": "Address",
          "type": "string"
        },
        {
          "name": "Sqfeet",
          "type": "uint256"
        },
        {
          "name": "Lid",
          "type": "uint256"
        }
      ],
      "payable": false,
      "stateMutability": "view",
      "type": "function",
      "signature": "0x34461067"
    },
    {
      "constant": true,
      "inputs": [],
      "name": "recordCount",
      "outputs": [
        {
          "name": "",
          "type": "uint256"
        }
      ],
      "payable": false,
      "stateMutability": "view",
      "type": "function",
      "signature": "0x900407bc"
    },
    {
      "inputs": [],
      "payable": false,
      "stateMutability": "nonpayable",
      "type": "constructor",
      "signature": "constructor"
    },
    {
      "constant": false,
      "inputs": [
        {
          "name": "_cid",
          "type": "uint256"
        },
        {
          "name": "_owner",
          "type": "string"
        },
        {
          "name": "_address",
          "type": "string"
        },
        {
          "name": "_sqfeet",
          "type": "uint256"
        }
      ],
      "name": "createRecord",
      "outputs": [],
      "payable": false,
      "stateMutability": "nonpayable",
      "type": "function",
      "signature": "0xfa9871d7"
    }
  ],
  "bytecode": "0x60806040526000805534801561001457600080fd5b5061009c60006040805190810160405280600881526020017f4a616e6520446f650000000000000000000000000000000000000000000000008152506040805190810160405280601381526020017f414243206c616e652c58595a20504f2c5051520000000000000000000000000081525060646100a1640100000000026401000000009004565b6101e0565b6000805460019081018083556040805160c08101825282815260208082018a81528284018a8152606084018a90526080840189905260a084018890529487528582529290952081518155915193820193909355905180519293919261010c9260028501920190610145565b5060608201518051610128916003840191602090910190610145565b506080820151600482015560a09091015160059091015550505050565b828054600181600116156101000203166002900490600052602060002090601f016020900481019282601f1061018657805160ff19168380011785556101b3565b828001600101855582156101b3579182015b828111156101b3578251825591602001919060010190610198565b506101bf9291506101c3565b5090565b6101dd91905b808211156101bf57600081556001016101c9565b90565b6105ba806101ef6000396000f3fe6080604052600436106100565763ffffffff7c010000000000000000000000000000000000000000000000000000000060003504166334461067811461005b578063900407bc1461017f578063fa9871d7146101a6575b600080fd5b34801561006757600080fd5b506100856004803603602081101561007e57600080fd5b50356102eb565b604051808781526020018681526020018060200180602001858152602001848152602001838103835287818151815260200191508051906020019080838360005b838110156100de5781810151838201526020016100c6565b50505050905090810190601f16801561010b5780820380516001836020036101000a031916815260200191505b50838103825286518152865160209182019188019080838360005b8381101561013e578181015183820152602001610126565b50505050905090810190601f16801561016b5780820380516001836020036101000a031916815260200191505b509850505050505050505060405180910390f35b34801561018b57600080fd5b50610194610449565b60408051918252519081900360200190f35b3480156101b257600080fd5b506102e9600480360360808110156101c957600080fd5b813591908101906040810160208201356401000000008111156101eb57600080fd5b8201836020820111156101fd57600080fd5b8035906020019184600183028401116401000000008311171561021f57600080fd5b91908080601f016020809104026020016040519081016040528093929190818152602001838380828437600092019190915250929594936020810193503591505064010000000081111561027257600080fd5b82018360208201111561028457600080fd5b803590602001918460018302840111640100000000831117156102a657600080fd5b91908080601f016020809104026020016040519081016040528093929190818152602001838380828437600092019190915250929550509135925061044f915050565b005b6001602052806000526040600020600091509050806000015490806001015490806002018054600181600116156101000203166002900480601f0160208091040260200160405190810160405280929190818152602001828054600181600116156101000203166002900480156103a35780601f10610378576101008083540402835291602001916103a3565b820191906000526020600020905b81548152906001019060200180831161038657829003601f168201915b5050505060038301805460408051602060026001851615610100026000190190941693909304601f81018490048402820184019092528181529495949350908301828280156104335780601f1061040857610100808354040283529160200191610433565b820191906000526020600020905b81548152906001019060200180831161041657829003601f168201915b5050505050908060040154908060050154905086565b60005481565b6000805460019081018083556040805160c08101825282815260208082018a81528284018a8152606084018a90526080840189905260a08401889052948752858252929095208151815591519382019390935590518051929391926104ba92600285019201906104f3565b50606082015180516104d69160038401916020909101906104f3565b506080820151600482015560a09091015160059091015550505050565b828054600181600116156101000203166002900490600052602060002090601f016020900481019282601f1061053457805160ff1916838001178555610561565b82800160010185558215610561579182015b82811115610561578251825591602001919060010190610546565b5061056d929150610571565b5090565b61058b91905b8082111561056d5760008155600101610577565b9056fea165627a7a723058207f302ca90bb525dfb1915dd8d0d76872679a5141b3e14c5c099bc8d39e810be20029",
  "source": "pragma solidity ^0.5.0;\n\ncontract LandRecords{\n    uint public recordCount = 0;\n\n    struct Record {\n    uint Rid;\n    uint Cid;\n    string Owner;\n    string Address;\n    uint Sqfeet;\n    uint Lid;\n  }\n   \n  mapping(uint => Record) public records;\n\n  constructor() public {\n        createRecord(0,\"Jane Doe\",\"ABC lane,XYZ PO,PQR\",100);\n      }\n\n  function createRecord(uint _cid,string memory _owner,string memory _address,uint _sqfeet) public {\n    recordCount ++;\n    records[recordCount] = Record(recordCount,_cid,_owner,_address,_sqfeet,0);\n    \n  }\n}",
  "sourcePath": "/Users/ajayrwarrier/Desktop/Cryptopolis/contracts/LandRecords.sol",
  "compiler": {
    "name": "solc",
    "version": "0.5.0+commit.1d4f565a.Emscripten.clang"
  },
  "schemaVersion": "3.0.2",
  "updatedAt": "2019-05-02T05:01:04.756Z",
  "devdoc": {
    "methods": {}
  },
  "userdoc": {
    "methods": {}
  }
}